S015000050726F796563746F204F6A6F732E73726563FF
S11300000C9476000C9493000C9493000C94A50427
S11300100C94A1030C9493000C9493000C949300FF
S11300200C9493000C9493000C9493000C94930000
S11300300C9493000C9493000C9493000C949300F0
S11300400C9493000C9493000C940B050C94930063
S11300500C9493000C9493000C9493000C949300D0
S11300600C9493000C9493002B02340241024E0230
S11300705B026802750282028F029C02850385037B
S1130080850385038503850385038503850385032C
S1130090850385038503850385038503850385031C
S11300A0850385038503850385038503850385030C
S11300B085038503850385038503850385038503FC
S11300C085038503850385038503A902B602C3025C
S11300D0D002DD02EA02F702040311031E032B031C
S11300E03803450352035F036C03790311241FBED5
S11300F0CFEFD8E0DEBFCDBF11E0A0E0B1E0E6E78E
S1130100F3E102C005900D92A230B107D9F721E0C6
S1130110A2E0B1E001C01D92AC30B207E1F70E9449
S1130120AB000C94B9090C940000ECE6F0E080817B
S11301308F608083E8E6F0E08081826080830895A8
S1130140EBE6F0E0808181618083E8E6F0E0808185
S1130150816080830895F89487B1807F87B988B1DE
S11301608F6088B984B18E7E84B985B1816185B987
S113017084B1806284B90E9495000E94A0000E940C
S113018042050E948F070E947E060E9486050E94F7
S1130190830660E074E080E00E94050760E074E09C
S11301A080E00E94FE0560E074E080E00E94E706C3
S11301B060E074E080E00E94E8058AB184698AB94D
S11301C0789480910B0181113BC08BB18F778BB9EF
S11301D08BB184608BB98FE39CE90197F1F700C080
S11301E0000085E00E945A0580930A010E94490696
S11301F08FE39CE90197F1F700C0000086E00E94BC
S11302005A05809309010E9459078FE39CE90197DD
S1130210F1F700C0000087E00E945A0580930801AE
S11302200E9423078FE39CE90197F1F700C00000C7
S113023084E00E945A05809307010E941406C1CFEE
S1130240813051F48BB18B7F8BB98BB180618BB9C9
S113025085B1806285B9B5CF823009F0B2CF8BB158
S11302608F7E8BB98BB180688BB98091000181300E
S1130270A1F48FE39CE90197F1F700C000006091BD
S113028002017091030180910401909105010E9483
S11302908908862F0E94490694CF8230A1F48FE307
S11302A09CE90197F1F700C0000060910201709190
S11302B0030180910401909105010E948908862F11
S11302C00E9459077ECF8330A1F48FE39CE9019704
S11302D0F1F700C000006091020170910301809168
S11302E00401909105010E948908862F0E9423072A
S11302F068CF843009F065CF8FE39CE90197F1F76B
S113030000C000006091020170910301809104011A
S1130310909105010E948908862F0E94140651CFEE
S113032080910B01811104C081E080930B01089539
S1130330813021F482E080930B010895823011F41E
S113034010920B01089580910B01811114C06091EA
S11303500A010E9479056091090181E00E947905F2
S11303606091080182E00E9479056091070183E0B1
S11303700E94790508958130E1F480E00E946F05C0
S113038080930A010E94490681E00E946F058093D0
S113039009010E94590782E00E946F0580930801B9
S11303A00E94230783E00E946F05809307010E9447
S11303B01406089580910B01811115C060910A0102
S11303C084E00E9479056091090185E00E94790525
S11303D06091080186E00E9479056091070187E039
S11303E00E94790508958130E1F484E00E946F054C
S11303F080930A010E94490685E00E946F0580935C
S113040009010E94590786E00E946F058093080144
S11304100E94230787E00E946F05809307010E94D2
S113042014060895843739F0863739F0823739F461
S11304300E94900108950E94A3010E94DA01089588
S113044090E0FC01F097E234F10508F05EC1EC5C49
S1130450FF4F0C94B3091092020110920301109201
S1130460040110920501089580E090E0A0E2B1E457
S11304708093020190930301A0930401B0930501BA
S1130480089580E090E0A0EAB1E4809302019093A3
S11304900301A0930401B0930501089580E090E066
S11304A0A0EFB1E48093020190930301A0930401AF
S11304B0B0930501089580E090E0A0E2B2E4809357
S11304C0020190930301A0930401B09305010895E0
S11304D080E090E0A8E4B2E48093020190930301E9
S11304E0A0930401B0930501089580E090E0A0E793
S11304F0B2E48093020190930301A0930401B093AA
S11305000501089580E090E0ACE8B2E48093020134
S113051090930301A0930401B0930501089580E032
S113052090E0A0EAB2E48093020190930301A093C7
S11305300401B0930501089580E090E0A4EBB2E4D7
S11305408093020190930301A0930401B0930501E9
S1130550089580E090E0A8ECB2E4809302019093C7
S11305600301A0930401B0930501089580E090E095
S1130570ACEDB2E48093020190930301A0930401D3
S1130580B0930501089580E090E0A0EFB2E4809379
S1130590020190930301A0930401B093050108950F
S11305A080E090E0A2E0B3E4809302019093030121
S11305B0A0930401B0930501089580E090E0ACE0BD
S11305C0B3E48093020190930301A0930401B093D8
S11305D00501089580E090E0A6E1B3E48093020170
S11305E090930301A0930401B0930501089580E062
S11305F090E0A0E2B3E48093020190930301A093FE
S11306000401B0930501089580E090E0AAE2B3E408
S11306108093020190930301A0930401B093050118
S1130620089580E090E0A4E3B3E480930201909302
S11306300301A0930401B0930501089580E090E0C4
S1130640AEE3B3E48093020190930301A093040109
S1130650B0930501089580E090E0A8E4B3E48093AA
S1130660020190930301A0930401B093050108953E
S113067080E090E0A2E5B3E480930201909303014B
S1130680A0930401B0930501089580E090E0ACE5E7
S1130690B3E48093020190930301A0930401B09307
S11306A00501089580E090E0A6E6B3E4809302019A
S11306B090930301A0930401B0930501089580E091
S11306C090E0A0E7B3E48093020190930301A09328
S11306D00401B0930501089580E090E0AAE7B3E433
S11306E08093020190930301A0930401B093050148
S11306F0089580E090E0AFE7B3E480930201909323
S11307000301A0930401B09305010895883749F0CB
S113071018F4873791F00895893739F08A3749F00A
S1130720089581E080930001089582E080930001A0
S1130730089583E080930001089584E0809300018C
S113074008951F920F920FB60F9211242F933F9387
S11307504F935F936F937F938F939F93AF93BF93C5
S1130760EF93FF9386B190910B0191115CC080FDD2
S113077015C060910A0180E00E9479056091090129
S113078081E00E9479056091080182E00E94790568
S11307906091070183E00E947905C3C081FD15C003
S11307A060910A0184E00E9479056091090185E065
S11307B00E9479056091080186E00E9479056091A4
S11307C0070187E00E947905ACC082FD15C06091E5
S11307D00A0188E00E9479056091090189E00E947C
S11307E07905609108018AE00E947905609107010A
S11307F08BE00E94790595C083FD93C060910A0146
S11308008CE00E947905609109018DE00E947905D0
S1130810609108018EE00E947905609107018FE0E4
S11308200E9479057EC0913009F07BC080FD1DC017
S113083080E00E946F0580930A010E94490681E0CE
S11308400E946F05809309010E94590782E00E946B
S11308506F05809308010E94230783E00E946F05BF
S1130860809307010E9414065CC081FD1DC084E0D2
S11308700E946F0580930A010E94490685E00E9448
S11308806F05809309010E94590786E00E946F0555
S1130890809308010E94230787E00E946F058093DC
S11308A007010E9414063DC082FD1DC088E00E941D
S11308B06F0580930A010E94490689E00E946F0532
S11308C0809309010E9459078AE00E946F05809372
S11308D008010E9423078BE00E946F0580930701A3
S11308E00E9414061EC083FD1CC08CE00E946F058C
S11308F080930A010E9449068DE00E946F0580934F
S113090009010E9459078EE00E946F058093080137
S11309100E9423078FE00E946F05809307010E94C5
S113092014068BB382608BBBFF91EF91BF91AF91A3
S11309309F918F917F916F915F914F913F912F91F3
S11309400F900FBE0F901F9018951F920F920FB625
S11309500F9211242F933F934F935F936F937F9341
S11309608F939F93AF93BF93CF93EF93FF93C3B1B1
S1130970C4FF0E94900180910B01811117C0C0FD3A
S113098035C060910A0180E10E94790560910901F6
S113099081E10E9479056091080182E10E94790554
S11309A06091070183E10E94790520C08130F1F450
S11309B0C0FD1CC080E10E946F0580930A010E9463
S11309C0490681E10E946F05809309010E9459073D
S11309D082E10E946F05809308010E94230783E14E
S11309E00E946F05809307010E9414068BB38260F6
S11309F08BBBFF91EF91CF91BF91AF919F918F915D
S1130A007F916F915F914F913F912F910F900FBE06
S1130A100F901F9018951F920F920FB60F921124EA
S1130A202F933F934F935F936F937F938F939F93F2
S1130A30AF93BF93EF93FF9385B18F7D85B9809179
S1130A40C600809306010E948603809106010E94DD
S1130A502002809106010E9412028091C00085FF4D
S1130A60FCCFFF91EF91BF91AF919F918F917F91B7
S1130A706F915F914F913F912F910F900FBE0F9007
S1130A801F901895ECE7F0E01082808180628083EB
S1130A90808180648083EEE7F0E0808180618083E0
S1130AA0808180628083EAE7F0E010828081876041
S1130AB080830895ECE7F0E09081907F892B808318
S1130AC0EAE7F0E0808180688083808180648083AD
S1130AD080917A0086FDFCCF809179000895F99980
S1130AE0FECF90E092BD81BD8FB381608FBB80B596
S1130AF00895F999FECF90E092BD81BD60BD8FB39A
S1130B0084608FBB8FB382608FBB089514BC15BC07
S1130B1008954F925F926F927F92AF92BF92CF925D
S1130B20DF92EF92FF920F931F93CF93DF93CDB792
S1130B30DEB728970FB6F894DEBF0FBECDBF2901EC
S1130B403A01ED82FE820F8318870E94AA07698307
S1130B507A838B839C83A6019501698D7A8D8B8D15
S1130B609C8D0E94AA079B01AC0169817A818B81CB
S1130B709C810E94460969837A838B839C83A301A9
S1130B809201C801B7010E94AA079B01AC016981C7
S1130B907A818B819C810E9417089B01AC01C6015C
S1130BA0B5010E94AB0728960FB6F894DEBF0FBEBE
S1130BB0CDBFDF91CF911F910F91FF90EF90DF9008
S1130BC0CF90BF90AF907F906F905F904F900895BB
S1130BD09AB190649AB9882321F084B5806C84BD5D
S1130BE003C084B5806884BD84B5836084BD611509
S1130BF0744019F485B5856085BD08959AB19062F5
S1130C009AB9882321F084B5806384BD03C084B578
S1130C10806284BD84B5836084BD6115744019F419
S1130C2085B5856085BD0895AF92BF92CF92DF925E
S1130C30EF92FF920F931F93682F70E080E090E093
S1130C400E94B80821E42F9328EB2F931F921F9240
S1130C500F2EA12CB12CF0ECCF2EF0E4DF2EF02DD2
S1130C60E12CF12C0FE713E420E030E0A9010E940D
S1130C7089050F900F900F900F900E94890867BD0F
S1130C801F910F91FF90EF90DF90CF90BF90AF90A6
S1130C900895AF92BF92CF92DF92EF92FF920F939B
S1130CA01F93682F70E080E090E00E94B80822E46F
S1130CB02F9320E12F931F921F920F2EA12CB12C62
S1130CC0F0ECCF2EF0E4DF2EF02DE12CF12C0FE729
S1130CD013E420E030E0A9010E9489050F900F90F1
S1130CE00F900F900E94890868BD1F910F91FF908B
S1130CF0EF90DF90CF90BF90AF9008951092800056
S1130D001092810008951092B0001092B1000895DD
S1130D104F925F926F927F92AF92BF92CF92DF9287
S1130D20EF92FF920F931F93CF93DF93CDB7DEB76C
S1130D3028970FB6F894DEBF0FBECDBF29013A0144
S1130D40ED82FE820F8318870E94AA0769837A8343
S1130D508B839C83A6019501698D7A8D8B8D9C8DE7
S1130D600E94AA079B01AC0169817A818B819C81D5
S1130D700E94460969837A838B839C83A301920131
S1130D80C801B7010E94AA079B01AC0169817A815D
S1130D908B819C810E9417089B01AC01C601B5019F
S1130DA00E94AB0728960FB6F894DEBF0FBECDBFE6
S1130DB0DF91CF911F910F91FF90EF90DF90CF9033
S1130DC0BF90AF907F906F905F904F90089594B1D3
S1130DD0986094B9882331F0E0EBF0E08081806C76
S1130DE0808305C0E0EBF0E0808180688083E0EBE5
S1130DF0F0E08081836080836115744029F4E1EB25
S1130E00F0E080818760808308959AB198609AB9F0
S1130E10882331F0E0EBF0E080818063808305C0BB
S1130E20E0EBF0E0808180628083E0EBF0E08081A1
S1130E30836080836115744029F4E1EBF0E08081E4
S1130E40876080830895AF92BF92CF92DF92EF9232
S1130E50FF920F931F93682F70E080E090E00E9450
S1130E60B80822E42F9320E12F931F921F920F2E94
S1130E70A12CB12CF0ECCF2EF0E4DF2EF02DE12CE0
S1130E80F12C0FE713E420E030E0A9010E9488066A
S1130E900F900F900F900F900E9489086093B300F9
S1130EA01F910F91FF90EF90DF90CF90BF90AF9084
S1130EB00895AF92BF92CF92DF92EF92FF920F9379
S1130EC01F93682F70E080E090E00E94B80822E44D
S1130ED02F9320E12F931F921F920F2EA12CB12C40
S1130EE0F0ECCF2EF0E4DF2EF02DE12CF12C0FE707
S1130EF013E420E030E0A9010E9488060F900F90CF
S1130F000F900F900E9489086093B4001F910F9175
S1130F10FF90EF90DF90CF90BF90AF9008958AB18B
S1130F208E7F8AB98AB182608AB91092C000E1ECDE
S1130F30F0E01082808188698083E2ECF0E0108226
S1130F4080818660808387E690E09093C5008093DB
S1130F50C40008955058BB27AA270E94C2070C94C6
S1130F600C090E94FE0838F00E94050920F039F4AB
S1130F709F3F19F426F40C94FB080EF4E095E7FB6C
S1130F800C94F508E92F0E941D0958F3BA1762075B
S1130F9073078407950720F079F4A6F50C943F09AC
S1130FA00EF4E0950B2EBA2FA02D0B01B901900180
S1130FB00C01CA01A0011124FF27591B99F0593FC4
S1130FC050F4503E68F11A16F040A22F232F342F0C
S1130FD04427585FF3CF469537952795A795F0405A
S1130FE05395C9F77EF41F16BA0B620B730B840B6F
S1130FF0BAF09150A1F0FF0FBB1F661F771F881F27
S1131000C2F70EC0BA0F621F731F841F48F487957E
S113101077956795B795F7959E3F08F0B0CF939570
S1131020880F08F09927EE0F9795879508950E94E9
S11310302B080C940C090E94050958F00E94FE0824
S113104040F029F45F3F29F00C94F50851110C94F9
S113105040090C94FB080E941D0968F39923B1F31D
S1131060552391F3951B550BBB27AA2762177307CA
S1131070840738F09F5F5F4F220F331F441FAA1F5E
S1131080A9F335D00E2E3AF0E0E832D0915050401A
S1131090E695001CCAF72BD0FE2F29D0660F771FC8
S11310A0881FBB1F261737074807AB07B0E809F0AE
S11310B0BB0B802DBF01FF2793585F4F3AF09E3F33
S11310C0510578F00C94F5080C9440095F3FE4F363
S11310D0983ED4F3869577956795B795F7959F5F76
S11310E0C9F7880F911D9695879597F90895E1E0C2
S11310F0660F771F881FBB1F621773078407BA0721
S113110020F0621B730B840BBA0BEE1F88F7E0957B
S113111008950E94250988F09F5798F0B92F9927C0
S1131120B751B0F0E1F0660F771F881F991F1AF0CE
S1131130BA95C9F714C0B13091F00E943F09B1E0EB
S113114008950C943F09672F782F8827B85F39F0EA
S1131150B93FCCF3869577956795B395D9F73EF467
S113116090958095709561957F4F8F4F9F4F08950F
S1131170E89409C097FB3EF490958095709561952D
S11311807F4F8F4F9F4F9923A9F0F92F96E9BB27E3
S11311909395F695879577956795B795F111F8CF5F
S11311A0FAF4BB0F11F460FF1BC06F5F7F4F8F4FCA
S11311B09F4F16C0882311F096E911C0772321F0C0
S11311C09EE8872F762F05C0662371F096E8862F58
S11311D070E060E02AF09A95660F771F881FDAF7AF
S11311E0880F9695879597F9089597F99F6780E8F2
S11311F070E060E008959FEF80EC089500240A9465
S11312001616170618060906089500240A941216DD
S11312101306140605060895092E0394000C11F410
S1131220882352F0BB0F40F4BF2B11F460FF04C0BD
S11312306F5F7F4F8F4F9F4F089557FD9058440F16
S1131240551F59F05F3F71F04795880F97FB991F21
S113125061F09F3F79F087950895121613061406DE
S1131260551FF2CF4695F1DF08C01616170618066B
S1131270991FF1CF86957105610508940895E89446
S1131280BB2766277727CB0197F908950E94590950
S11312900C940C090E94FE0838F00E94050920F005
S11312A0952311F00C94F5080C94FB0811240C946C
S11312B040090E941D0970F3959FC1F3950F50E0FA
S11312C0551F629FF001729FBB27F00DB11D639FF4
S11312D0AA27F00DB11DAA1F649F6627B00DA11D9A
S11312E0661F829F2227B00DA11D621F739FB00D40
S11312F0A11D621F839FA00D611D221F749F3327B0
S1131300A00D611D231F849F600D211D822F762F48
S11313106A2F11249F5750409AF0F1F088234AF025
S1131320EE0FFF1FBB1F661F771F881F9150504091
S1131330A9F79E3F510580F00C94F5080C944009E0
S11313405F3FE4F3983ED4F3869577956795B79518
S1131350F795E7959F5FC1F7FE2B880F911D969532
S1131360879597F90895EE0FFF1F0590F491E02DEE
S10913700994F894FFCF7C
S1051376010070
S9030000FC
